:020000040800F2
:100000006807002089010008CD0A0008A50400083F
:10001000C90A0008390200085F0F0008000000004C
:10002000000000000000000000000000A10B00081C
:10003000D5020008000000005D0B0008B50C0008A8
:10004000A3010008A3010008A3010008A301000800
:10005000A3010008A3010008A3010008A3010008F0
:10006000A3010008A3010008A3010008A3010008E0
:10007000A3010008A3010008A3010008A3010008D0
:10008000A3010008A3010008A3010008A3010008C0
:10009000A3010008A3010008A3010008A3010008B0
:1000A000A3010008A3010008A3010008A3010008A0
:1000B000A3010008A3010008A3010008A301000890
:1000C000A3010008A3010008A3010008A301000880
:1000D000A3010008790E0008A3010008A30100088D
:1000E000A3010008A3010008A301000800F002F822
:1000F00000F03AF80AA090E8000C82448344AAF188
:100100000107DA4501D100F02FF8AFF2090EBAE885
:100110000F0013F0010F18BFFB1A43F0010318473B
:10012000C0870000E0870000103A24BF78C878C17B
:10013000FAD8520724BF30C830C144BF04680C60ED
:10014000704700000023002400250026103A28BF35
:1001500078C1FBD8520728BF30C148BF0B60704739
:100160001FB51FBD10B510BD00F033F81146FFF7E5
:10017000F7FF00F085FF00F051F803B4FFF7F2FF3E
:1001800003BC00F0EEFE0000094880470948004724
:10019000FEE7FEE7FEE7FEE7FEE7FEE7FEE7FEE737
:1001A000FEE7FEE704480549054A064B7047000094
:1001B000C50C0008ED000008680100206807002059
:1001C000680300206803002070477047704770473D
:1001D0007047754600F02CF8AE4605006946534658
:1001E00020F00700854618B020B5FFF7DBFFBDE81B
:1001F00020404FF000064FF000074FF000084FF08E
:10020000000B21F00701AC46ACE8C009ACE8C0091E
:10021000ACE8C009ACE8C0098D46704710B504468B
:10022000AFF300802046BDE81040FFF7A6BF0000F6
:10023000004870470401002000BFFEE710B500F041
:1002400033F904461F480078844205D0142000F09A
:10025000ADFE00F029F90446F4B11A480078D8B987
:1002600000F01AF901461848007828B917480160CB
:100270000120154A10700EE01348007801280AD1B9
:1002800012480068081A322803D200200E4A107063
:1002900001E00E48016000BF0B48007801280ED134
:1002A00000F0FAF809490968401A322807D30848CB
:1002B00000680A30064908600020034908700148B8
:1002C000047010BD2D0000202C000020280000200C
:1002D0002000002070472DE9F0410246002500264D
:1002E000002000230024002791F803C00CF00F0524
:1002F00091F803C00CF0100CBCF1000F03D091F882
:1003000002C04CEA050591F800C0BCF1000F31D0E5
:10031000146800202BE04FF0010C0CFA00F3B1F848
:1003200000C00CEA03069E4220D183004FF00F0C60
:100330000CFA03F7BC4305FA03FC4CEA040491F8F9
:1003400003C0BCF1280F06D14FF0010C0CFA00FCE1
:10035000C2F814C00AE091F803C0BCF1480F05D1FF
:100360004FF0010C0CFA00FCC2F810C0401C082829
:10037000D1D31460B1F800C0BCF1FF0F34DD546874
:1003800000202EE000F1080C4FF0010808FA0CF3F1
:10039000B1F800C00CEA03069E4221D183004FF061
:1003A0000F0C0CFA03F7BC4305FA03FC4CEA0404F7
:1003B00091F803C0BCF1280F05D100F1080C08FA30
:1003C0000CF8C2F8148091F803C0BCF1480F07D1B3
:1003D00000F1080C4FF0010808FA0CF8C2F8108080
:1003E000401C0828CED35460BDE8F081F0B50A4621
:1003F000002300240021002500F00046B6F1004F44
:1004000002D11D4EF16901E01B4E7168C0F3034536
:1004100083B200F44016B6F5401F08D121F0706198
:10042000154E766826F07066134F7E6012E000F479
:100430008016B6F5801F06D1032606FA05F4A143FF
:1004400041F0706106E0460D360103FA06F6B1434D
:1004500041F0706122B1460D360103FA06F63143D0
:1004600000F00046B6F1004F02D1034EF16101E009
:10047000014E7160F0BD0000000001400246002006
:1004800093680B400BB1012000E0002070474161F0
:100490007047016170470000014800687047000024
:1004A0001400002000BFFEE710B54FF400510448CF
:1004B000FFF7E4FF08B9012010BD0020FCE70000B1
:1004C000000C01402DE9F04104460D4616461F463A
:1004D0002A2000F09DFA611C88B200F089FA711C94
:1004E00088B200F085FA2B2000F092FA05F11A018B
:1004F00088B200F07DFA07F11A0188B200F078FAAC
:100500002C2000F085FABDE8F08170B504460D4658
:1005100016462B46224629462046FFF7D3FF304693
:1005200000F066FA70BD2DE9F04706460F46144606
:100530001D46DDF820A0681E83B2601E82B23946D7
:100540003046FFF7BFFFB8460EE0B14606E0504622
:1005500000F04EFA09F101001FFA80F9A145F6DB1F
:1005600008F101001FFA80F8A845EEDBBDE8F0872E
:1005700008B50121042000F003FB3F20ADF8000086
:1005800010208DF8030003208DF80200694604480E
:10059000FFF7A1FE3F210248FFF77BFF08BD0000E7
:1005A0000008014010B5FFF7E3FF04218F48FFF773
:1005B0006EFF642000F0FAFC04218C48FFF769FF0D
:1005C000642000F0F3FC20218848FFF762FF6420DC
:1005D00000F0ECFC112000F01BFA782000F0E6FCA3
:1005E000B12000F015FA052000F00BFA3C2000F0D5
:1005F00008FA3C2000F005FAB22000F009FA0520C4
:1006000000F0FFF93C2000F0FCF93C2000F0F9F983
:10061000B32000F0FDF9052000F0F3F93C2000F0D4
:10062000F0F93C2000F0EDF9052000F0EAF93C205B
:1006300000F0E7F93C2000F0E4F9B42000F0E8F91C
:10064000032000F0DEF9C02000F0E2F9AB2000F05A
:10065000D8F90B2000F0D5F9042000F0D2F9C12020
:1006600000F0D6F9C52000F0CCF9C22000F0D0F996
:100670000D2000F0C6F9002000F0C3F9C32000F0FF
:10068000C7F98D2000F0BDF96A2000F0BAF9C42046
:1006900000F0BEF98D2000F0B4F9EE2000F0B1F9C1
:1006A000C52000F0B5F90F2000F0ABF9E02000F014
:1006B000AFF9072000F0A5F90E2000F0A2F90820FC
:1006C00000F09FF9072000F09CF9102000F099F944
:1006D000072000F096F9022000F093F9072000F0BF
:1006E00090F9092000F08DF90F2000F08AF92520FB
:1006F00000F087F9362000F084F9002000F081F93D
:10070000082000F07EF9042000F07BF9102000F0B2
:1007100078F9E12000F07CF90A2000F072F90D2050
:1007200000F06FF9082000F06CF9072000F069F97B
:100730000F2000F066F9072000F063F9022000F0B6
:1007400060F9072000F05DF9092000F05AF90F2048
:1007500000F057F9252000F054F9352000F051F948
:10076000002000F04EF9092000F04BF9042000F0C1
:1007700048F9102000F045F9FC2000F049F98020EC
:1007800000F03FF93A2000F043F9052000F039F974
:10079000362000F03DF9782000F033F9212000F0F8
:1007A00037F9292000F034F92A2000F031F900202F
:1007B00000F027F91A2000F024F9002000F021F9B8
:1007C000692000F01EF92B2000F022F9002000F033
:1007D00018F9012000F015F9002000F012F9A0200E
:1007E00000F00FF92C2000F013F910BD00080140B3
:1007F0002DE9FF5F80468A4617469B460F9D0020E5
:100800000290CDF80080284605EBD071C1F3470473
:100810002046E21704EB5272D2102146E31704EB94
:100820005373DB10A4EBC3030BB1012300E00023DF
:100830001A446A4392B20192A7F12000C7B20AEBB0
:100840000500401E83B208EB0400401E82B25146F0
:100850004046FFF737FE002669E00C2D07D107EB75
:100860004700354901EB8000805D03901BE0102DAF
:1008700005D1324800EB0710805D039013E0182D7E
:1008800007D107EB47002E4901EB0010805D039074
:1008900009E0202D05D12B4800EB8710805D0390E7
:1008A00001E0BDE8FF9F4FF000093AE01098C8B999
:1008B000012000FA09F00399084018B1584600F0E9
:1008C00097F802E00E9800F093F80298401CC0B22E
:1008D0000290029890FBF4F104FB1100E8B90020AB
:1008E000029021E0012000FA09F00399084020B1AC
:1008F0005A4651464046FFF708FE08F101001FFA2C
:1009000080F80098A8EB0000A04206D1DDF8008036
:100910000AF101001FFA80FA06E009F1010000F077
:10092000FF09B9F1080FC1DB00BF701C86B2019846
:10093000864292DB00BFB4E7C44F00083854000879
:10094000285A0008F86B00082DE9F05F0746884632
:1009500015461E46DDF82890002408EB0600401ED0
:1009600083B27819401E82B241463846FFF7AAFD8D
:10097000A24618E04FF0000B0FE019F8140000F049
:1009800040F8012101EB440119F8010000F039F8A9
:10099000641C0BF101001FFA80FBB345EDDB0AF18B
:1009A00001001FFA80FAAA45E4DBBDE8F09F2DE9BB
:1009B000FE4F06460F4614469846DDE90D5ADDF80F
:1009C000309010E0CDE9015ACDF8009022784346EE
:1009D00039463046FFF70CFF284605EBD07106EB91
:1009E00061018EB2641C20780028EBD1BDE8FE8F37
:1009F00010B50446201200F01BF8E0B200F018F821
:100A000010BD10B50446204600F012F810BD0000DD
:100A100010B5044608210548FFF739FD204600F0CF
:100A200007F808210148FFF734FD10BD0008014018
:100A300070B5044610211248FFF729FD002517E084
:100A400001210F48FFF723FD04F0800020B10221AF
:100A50000B48FFF71EFD03E002210948FFF717FDD1
:100A600001210748FFF715FD6006040E681CC5B29A
:100A7000082DE5DB10210248FFF70BFD70BD0000DB
:100A80000008014008B50121052000F079F8012196
:100A90000B48FFF7ABFC4FF40040ADF8000010200E
:100AA0008DF8030003208DF8020069460548FFF722
:100AB00012FC4FF400410348FFF7EBFC08BD0000B7
:100AC000000230000008014000BFFEE77047000050
:100AD00000B589B00121042000F052F80121022064
:100AE00000F03EF84020ADF8200018208DF82300DB
:100AF00003208DF8220008A91548FFF7ECFB40F20F
:100B0000E730ADF818004FF4FA70ADF8140000208B
:100B1000ADF81600ADF81A0005A90E4800F05AF914
:100B20006020ADF804000120ADF806000A480088F6
:100B300080B2ADF80A000020ADF80C0001A905480C
:100B400000F0FCF80121034800F0ECF809B000BD0A
:100B5000000801400004004024000020704700000D
:100B600029B1064AD2690243044BDA6104E0034A20
:100B7000D2698243014BDA617047000000100240E5
:100B800029B1064A92690243044B9A6104E0034A80
:100B900092698243014B9A61704700000010024045
:100BA000704710B500F002F810BD00000CB5002031
:100BB000019000903348006840F48030314908606B
:100BC00000BF3048006800F4003000900198401CDD
:100BD0000190009818B90198B0F5A06FF1D129489B
:100BE000006800F4003010B10120009001E0002006
:100BF00000900098012843D12348006840F010007D
:100C0000214908600846006820F003000860084693
:100C1000006840F0020008601A48406819494860BE
:100C20000846406848600846406840F48060486074
:100C30000846406820F47C1048600846406840F44C
:100C4000E81048600846006840F08070086000BF07
:100C50000C48006800F000700028F9D0094840688E
:100C600020F00300074948600846406840F0020051
:100C7000486000BF0348406800F00C000828F9D124
:100C80000CBD00000010024000200240042808D1E2
:100C90004FF0E021096941F004014FF0E0221161B9
:100CA00007E04FF0E021096921F004014FF0E02254
:100CB0001161704702480068401C01490860704794
:100CC0001400002010B51348006840F001001149DD
:100CD000086008464068104908400E4948600846C8
:100CE00000680E4908400B4908600846006820F477
:100CF000802008600846406820F4FE0048604FF4F9
:100D00001F008860FFF74DFF4FF000600449086046
:100D100010BD0000001002400000FFF8FFFFF6FECB
:100D200008ED00E021B1028842F00102028004E0F7
:100D300002884FF6FE731A400280704770B5002497
:100D400000220023058C4FF6FE7635400584028C88
:100D50008388048B4FF68F752C40B51E2C400D8870
:100D60002C43751E2A400D892A434D882A43144D71
:100D7000A8420BD0134DA84208D0134DA84205D06D
:100D8000124DA84202D0124DA84213D14FF6F7756A
:100D90002A404D892A434FF6FB752A408D882A4305
:100DA0004FF6FF652B404FF6FF552B408D892B43A7
:100DB000CD892B4383800483CD888586028470BDD2
:100DC000002C01400034014000400140004401403B
:100DD00000480140002202881D4B98420ED01D4B56
:100DE00098420BD0B0F1804F08D01B4B984205D0F1
:100DF0001A4B984202D01A4B984204D14FF68F7387
:100E00001A404B881A43174B984207D0164B98420A
:100E100004D04FF6FF431A40CB881A4302808B88D8
:100E200083850B8803850A4B98420BD0094B984267
:100E300008D00E4B984205D00D4B984202D00D4B76
:100E4000984201D10B7A0386012383827047000008
:100E5000002C014000340140000400400008004024
:100E6000000C004000100040001400400040014011
:100E7000004401400048014010B540F225511D4892
:100E800000F03EF810B31B4800F064F8C4B21A48F2
:100E9000008800F40040C8B91748008800F480407A
:100EA00060B10A2C03D000201349088020E01248CA
:100EB000008840F400401049088019E00D2C06D14C
:100EC0000D48008840F480400B49088010E00A4833
:100ED0000088C0F30D0009490C5407480088401CE5
:100EE0000549088008460088C72801DD00200880E1
:100EF00010BD000000380140380000203C000020F8
:100F000070B50246002400230025002040F66A1632
:100F1000B14200D100BFC1F3421501F01F03012609
:100F200006FA03F3012D02D19689334006E0022D23
:100F300002D1168A334001E0968A33400C12012612
:100F400006FA04F41688344013B10CB1012000E015
:100F5000002070BD01468888C0F30800704700BFBC
:100F6000FEE700BF7047000010B56FF00400FFF708
:100F70008DFE0A4800680A49B0FBF1F00949087083
:100F80000846007800EB4001C1EBC0104FF6FF713E
:100F900001EAC0000449088010BD000000000020E4
:100FA00000127A002E000020300000200146114A75
:100FB00012884A434FF0E0235A6100229A611A4690
:100FC000126942F001021A6100BF4FF0E02210697D
:100FD00000F001021AB100F48032002AF5D04FF07F
:100FE000E022126922F001024FF0E0231A61002290
:100FF0009A6170473000002010B500244FF4005172
:101000000848FFF73BFA58B91420FFF7CFFF00E07C
:1010100001244FF400510348FFF730FA0028F7D0BD
:10102000204610BD000C014010B5002401210848E5
:10103000FFF724FA50B91420FFF7B8FF00E00124AD
:1010400001210348FFF71AFA0028F8D0204610BD06
:10105000000C014008B501210820FFF791FD42F284
:101060000100ADF8000048208DF8030003208DF842
:10107000020069460148FFF72EF908BD000C014047
:101080000EB5FFF771FFFFF7E5FFFFF7FBFCFFF77A
:1010900089FA00205023A02201460090FFF743FA6E
:1010A0000020204908603CE0FFF7C8F8FFF710FD7A
:1010B000FFF7BAFF012804D11B4800680A301A491B
:1010C00008601948006840F2E731884202D10020E8
:1010D00015490860FFF790FF20B114480068401CD4
:1010E00012490860002010214FF6FF72CDE900215F
:1010F00002900E48008881B200230DA21846FFF727
:1011000056FC0E4850231A46002100900846FFF76F
:101110001BFC0B4828231A46142100906420FFF77B
:1011200013FCC1E7BC012142240000202000002064
:1011300048454C4C4F20574F524C4400C41D0008AA
:1011400044110008FFFFFFFFFFFFFFFFFFFFFFFF4E
:10115000FFFFFFFFFFFFFFFFFFFFFFFFFFFFFFFF9F
:10116000FFFFF7BEFFFFFFDEC6388C926B8E6B6E03
:101170007C10AD96E73CFFFFFFFFFFFFFFFFFFFF87
:10118000FFFFFFFFFFFFFFFFFFFFFFFFFFFFFFFF6F
:10119000FFFFFFFFFFFFFFFFFFFFFFFFFFFFFFFF5F
:1011A000FFFFFFFFFFFFFFFFFFFFFFFFFFFFFFFF4F
:1011B000FFFFEF5D9D15634F426C320A2988194687
:1011C0001925214531E86B8EC638FFFFFFFFFFFF71
:1011D000FFFFFFFFFFFFFFFFFFFFFFFFFFFFFFFF1F
:1011E000FFFFFFFFFFFFFFFFFFFFFFFFFFFFFFFF0F
:1011F000FFFFFFFFFFFFFFFFFFFFFFFFFFFFFFFFFF
:10120000A53653104B1053514B0F3A6C31E92167FF
:10121000192510E408A30062088352CBD69AFFFF79
:10122000FFFFFFFFFFFFFFFFFFFFFFFFFFFFFFFFCE
:10123000FFFFFFFFFFFFFFFFFFFFFFFFFFFFFFFFBE
:10124000FFFFFFFFFFFFFFFFFFFFFFFFE73C6370B4
:1012500063B37CB863F54311324D29EA218819261E
:10126000190519051104110410E4008308A38C72F8
:10127000FFFFFFFFFFFFFFFFFFFFFFFFFFFFFFFF7E
:10128000FFFFFFFFFFFFFFFFFFFFFFFFFFFFFFFF6E
:10129000FFFFFFFFFFFFFFFFFFFFDEDB3A4B42F0E8
:1012A0006C354B5432B12A2E21EB21A9196719054F
:1012B00011041104110411041104190510E4004271
:1012C00073AFFFFFFFFFFFFFFFFFFFFFFFFFFFFF0A
:1012D000FFFFFFFFFFFFFFFFFFFFFFFFFFFFFFFF1E
:1012E000FFFFFFFFFFFFFFFFEF5D3209324C4B10A6
:1012F000328F2A4F2A2E19CC1989218919471905AD
:101300001104110410C410C411041104110410E4D8
:1013100000428431FFFFFFFFFFFFFFFFFFFFFFFFE2
:10132000FFFFFFFFFFFFFFFFFFFFFFFFFFFFFFFFCD
:10133000FFFFFFFFFFFFFFFF52EC1947324C2A0B64
:1013400021EC21EC220C5B914AEE110619261904BE
:1013500010E410E429A7216608A31905110411045B
:1013600010E40082BDF7FFFFFFFFFFFFFFFFFFFF5D
:10137000FFFFFFFFFFFFFFFFFFFFFFFFFFFFFFFF7D
:10138000FFFFFFFFFFFFA535088321882188218902
:1013900021AA218A426B8C71FFFF8C720883110491
:1013A00008C44229DEFBEF5D5AEC088311041104E6
:1013B0001104088331E8FFDFFFFFFFFFFFFFFFFF9E
:1013C000FFFFFFFFFFFFFFFFFFFFFFFFFFFFFFFF2D
:1013D000FFFFFFFFF7BE31C710C4192519261947B3
:1013E000194729A8528A4A28AD55FFFF31E808A3BA
:1013F00019056B4D6B4DFFFFEF7D214510C41104A6
:10140000110411040062AD76FFFFFFFFFFFFFFFF35
:10141000FFFFFFFFFFFFFFFFFFFFFFFFFFFFFFFFDC
:10142000FFFFFFFFB59600621104190411051905AD
:1014300008C44A8BB5B6EF5DBDF7FFFF6B8E006247
:1014400042295AAA4208FFFFFFFF52CC0883110429
:101450001104110408A352ADFFFFFFFFFFFFFFFFC0
:10146000FFFFFFFFFFFFFFFFFFFFE71CFFFFFFFF87
:10147000FFFFFFFF634E006211041104110410E42A
:101480000062638EFFFFFFFFFFFFFFFF73CF0001CE
:101490009CF3632CB596FFFFFFFF5B2D00831104C7
:1014A0001104110410E42167EF3DFFFFFFFFFFFF70
:1014B000FFFFFFFFBDF8B5B7EF9E52CB94B3FFFF20
:1014C000FFFFFFDF31E808A3110411041104110428
:1014D00008A34249F7FFF7FFFFFFFFFF4A6A000139
:1014E0008472FFFFFFFFF7FFEFDF3A0908A3110443
:1014F0001104110411041105BE18FFFFFFFFFFFFC7
:10150000FFFFFFFF7BF0006231E831C70041A535E6
:10151000FFFFEF5D214610C41104110411041104F2
:1015200010E408A39D76F7FFFFFFADB708A308A35B
:1015300031C7E79EF7FFF7FFA57608A310E4110473
:101540001104110411051105A535FFFFFFFFFFFF71
:10155000FFFFFFFFDEDB29A7008310C410C410C407
:10156000E71CEF9E110510E411041104110411048D
:10157000190408C410E56BD16BD108C5006408A537
:101580000043322B9D7784B3192510C41104110434
:1015900011041104192509269D35FFFFFFFFFFFFE8
:1015A000FFFFFFFFFFFF73AF006219041905008200
:1015B0005B0D9B8E1062110511041104190410E4D7
:1015C0000085110539C45A817B409C22AC43A40399
:1015D0009B837282498218C200A400C510E41904DA
:1015E00011041905194711675AECFFBEFFFFFFFFF1
:1015F000FFFFFFFFFFDFDEDB10C410E41104110565
:1016000018A4C001888300E41905190408C5214401
:101610008343D523FE42FEE4FF27FF07FEA4FE64BA
:10162000FE03FDA3FCE2EC42B383622410E508C490
:101630001904192619A821879000BCD3FFFFFFFFCA
:10164000FFFFFFFFFFDFFFFF7C10004219051105C0
:101650002883D001F84448A300E408C55A44ED02A9
:10166000FDE2FE02FE66FF74FFB8FF73F6E7F6A622
:10167000F645F5A4FCC3FC62FCC2FCC2CBE349C442
:1016800011061988018790A4F8019AECFFFFFFFF6B
:10169000FFFFFFFFFFFFFFFFF7BE31E800830905F3
:1016A0004082C001F823F08548A300A45A44FD02FB
:1016B000CC23DCC2FE04FE28F648F646F624F5E408
:1016C000FD64FCE3FC62FCC2E402DC02FCE27AA4FE
:1016D0000148016778C4F824F802B084E77DFFFF71
:1016E000FFFFFFFFFFFFFFFFFFFFDEDB192500A36A
:1016F00038C4E002D822F844F8A678A40063214355
:10170000728339839B82F521FD61FD22FCE2FCA2FC
:10171000FC42FC42FC42AB22418392C352040126AC
:10172000192598A4F844F823F802D0A4EF9EFFFFEF
:10173000FFFFFFFFFFFFFFFFFFFFFFFFD69A298795
:1017400000A5B843F822E023F865F8E8C907488304
:10175000004200A3008429637AA2B362CBA2D362C1
:10176000BB028A82398300A400E500E508E560C475
:10177000D864F844F824F823F8028883C6DBFFFF16
:10178000FFFFFFFFFFFFFFFFFFFFFFFFFFFFE73D43
:101790005B503108E823F843F044F865F909F9ABE8
:1017A000D189890648A318420002004200610082E4
:1017B00000620062008320A350C488A5D885F86524
:1017C000F844F844F823F823D003108229C7EF5DCA
:1017D000FFFFFFFFFFFFFFFFFFFFFFFFFFFFFFFF19
:1017E000FFFF326C38A5D802F823F865F866F8A731
:1017F000F94AFA0CFA4DEA4CD20BB9A9B168A947DB
:10180000B127B907D107E8E7F8C7F8A7F865F86581
:10181000F844F823F803D00228A3090508C45AECB9
:10182000FFFFFFFFFFFFFFFFFFFFFFFFFFFFFFFFC8
:10183000DEFB190500C441A7C0E6F803F886F8A747
:10184000F887F886F8C7F929F98AF9ABF9ABF98B6B
:10185000F96AF929F908F8C7F8A6F886F865F8646E
:10186000F823F002B106292500E410E41925192512
:101870009D14FFFFFFFFFFFFFFFFFFFFFFFFFFFFC5
:10188000AD96006208829535CEBAA28BD044F82579
:10189000F887F8A7F8C7F8A7F887F886F886F886D3
:1018A000F887F8A7F8A7F8A6F885F865F864F02493
:1018B000B864930DB6BB63CF0883110410E42166AE
:1018C0003A49EF5DFFFFFFFFFFFFFFFFFFFFFFFF55
:1018D00094D3004210E4CEBBFFFFE7BEB576AACC9E
:1018E000C107E045F845F846F866F886F886F886B8
:1018F000F886F865F845F865E865D044A84388019E
:101900009082D73CEFFF9555088311041104190507
:10191000194694B3FFFFFFFFFFFFFFFFFFFFFFFF2D
:1019200094B300412186DF5DFFFFFFFFFFFFE7DF8C
:10193000C67AB4D3B34EC22AD168E0E6E8A6E8A5D9
:10194000E8A5D8E6C988A906A822A802A000C80070
:10195000D800E5F7E7FFADF810C410E4110410E477
:1019600011054A8BFFFFFFFFFFFFFFFFFFFFFFFF98
:10197000A555004129A7DF5DF7FFFFFFFFFFFFFF30
:10198000FFFFFFFFEFFFDF7DCEDBCE59CDF8CDD7D8
:10199000C5F7CE79BEFBA2ABF003F845D042E843D1
:1019A000F000D472DFFFAE3910E410E4110410E44B
:1019B00011052987FFFFFFFFFFFFFFFFFFFFFFFF6D
:1019C000CE5908832146D71CF7FFFFFFFFFFFFFF1B
:1019D000FFFFFFFFFFFFFFFFFFFFFFFFFFFFFFFF17
:1019E000FFFFFFFFEFFFBA8BF804F845E062F04419
:1019F000F800DB8EDFFFA5F810C410E410E411043A
:101A000010E41925FFFFFFFFFFFFFFFFFFFFFFFFB0
:101A1000F7BE29870883B639F7FFF7DFFFFFFFFF1F
:101A2000FFFFFFFFFFFFFFFFFFFFFFFFFFFFFFFFC6
:101A3000FFFFFFFFE7BEBA4AF803F845F864F84431
:101A4000F800E36ED7FF8CF40883110410E410E46F
:101A500010E41905FFFFFFFFFFFFFFFFFFFFFFFF80
:101A6000FFFF73EF00008472EFFFEFBEFFDFFFFFA9
:101A7000FFFFFFFFFFFFFFFFFFFFFFFFFFFFFFFF76
:101A8000FFFFFFFFE7DFBA8BF803F845F845F823BF
:101A9000F800D4D3D7FF5B4E00213A29A55508831F
:101AA00010C41925FFFFFFFFFFFFFFFFFFFFFFFF30
:101AB000FFFFDEFB08A331E8DF9EE79EEFBFFFFFDD
:101AC000FFFFFFFFFFFFFFFFFFFFFFFFFFFFFFFF26
:101AD000FFFFFFFFF7FFBC51E002F803F003E04314
:101AE000C2ECCF7EBEFC2146002194D3FFFF84517F
:101AF00000002987FFFFFFFFFFFFFFFFFFFFFFFF42
:101B0000FFFFFFFF845100008CF4EFFFE79EEFBF63
:101B1000FFDFFFFFFFFFFFFFFFFFFFFFFFFFFFFFF5
:101B2000FFFFFFFFFFFFDF3DBD55BC52BC72B5B7E5
:101B3000C75DDFFF6BF000003A09F7BFFFFFFFFF53
:101B40009D14A555FFFFFFFFFFFFFFFFFFFFFFFFF6
:101B5000FFFFFFFFFFFF4AAC08A4BEBBE7DFE77E45
:101B6000EFBEF7DFFFDFFFFFFFFFFFFFFFFFFFFF1E
:101B7000FFFFFFFFFFDFF7DFEFFFDFDFD7BFD79EFE
:101B8000DFDFA5D808831126D6DBFFFFFFFFFFFFAD
:101B9000FFFFFFFFFFFFFFFFFFFFFFFFFFFFFFFF55
:101BA000FFFFFFFFEE79DC8B312121A9CF3DDFBFA5
:101BB000DF7EE79EEFBEEFBFF7DFF7DFF7DFF7DF90
:101BC000F7DFEFBFEFBEE79EDF7ED75ED75EDFDFDA
:101BD000B69A19260842A3EDFFBFFFFFFFFFFFFFE4
:101BE000FFFFFFFFFFFFFFFFFFFFFFFFFFFFFFFF05
:101BF000FFFFDD74DBC0FE00EE4242022189B67BAE
:101C0000DFDFD77EDF7EDF7EE79EE79EE79EE79EF3
:101C1000E79EDF7EDF7ED75DD75DDF9EE7FFA5F81D
:101C2000110718E3C502FD60D3E6EEDBFFFFFFFFFF
:101C3000FFFFFFFFFFFFFFFFFFFFFFFFFFFFFFFFB4
:101C4000F79EBA84FCC1FE42FE82FEA2838121453A
:101C50007474C75EDFDFD77ED75ED75DD75ED75E91
:101C6000D75DD75DD75EDF9EE7FFC73D63F1088490
:101C70005242E626FF29FE86F3E0C36AFFFFFFFF1C
:101C8000FFFFFFFFFFFFFFFFFFFFFFFFFFFFFFFF64
:101C9000DE18D2C1FDA2FE22FE42FE42FE62D4E266
:101CA0006A4142497453A63BC73ED7BFD7BFD7BF8F
:101CB000DFBFD7BFC73EA61A63F229A74182B4226D
:101CC000FE62FE83FEAAFF0FFD67BA63EF3CFFFFD3
:101CD000FFFFFFFFFFFFFFFFFFFFFFFFFFFFFFFF14
:101CE000E69AD280FD21FDC2F5E2F5C2F582FD82C1
:101CF000FD62DC619B216A846AE9632C63AF741125
:101D0000636E632C5A8952047A81CBC2FCE2FD6275
:101D1000FD82FDC2FDC2FDE4FD24CA62E71CFFFF97
:101D2000FFFFFFFFFFFFFFFFFFFFFFFFFFFFFFFFC3
:101D3000FFFFCCB1D281F3C0FCC1FD02FD02FCE289
:101D4000FCC2FCC2FC81FB80C9C081A4AD35CE5968
:101D50009C718121DA00FBA1FC82FCA2FC82FCA226
:101D6000FD02FD22FCE2FC00DA60CC90FFFFFFFFE9
:101D7000FFFFFFFFFFFFFFFFFFFFFFFFFFFFFFFF73
:101D8000FFFFFFFFDE59C40DCB06D2E4DB03DB030C
:101D9000DAE3D2C3C2A4B309BCD2F79EFFFFFFFFB0
:101DA000FFFFE6FBB40EBAA6D283E2E3EB02EB221E
:101DB000E322DB03D2E4C36AD5B6FFFFFFFFFFFFD8
:101DC000FFFFFFFFFFFFFFFFFFFFFFFFFFFFFFFF23
:101DD000FFFFFFFFFFFFFFFFFFFFFFFFFFFFFFFF13
:101DE000FFFFFFFFFFFFFFFFFFFFFFFFFFFFFFFF03
:101DF000FFFFFFFFFFFFBDF7C618C616C618841009
:101E0000F800F800F820C618C618FFE0FFE0FFE071
:101E1000FFE0FFE0FFE0FFE0FFE0FFE0FFE1002088
:101E2000C6187BCFC618FFFFFFFFFFFFFFFFFFFFB6
:101E3000FFFFFFFFFFFFFFFFFFFFFFFFFFFFFFFFB2
:101E4000FFFFFFFFFFFFFFFFFFFFFFFFFFFFFFFFA2
:101E5000FFFFFFFFFFFFFFFFFFFFFFFFFFFFFFFF92
:101E6000FFFFFFFFFFFFFFFFFFFFFFFFFFFFFFFF82
:101E7000FFFFFFFFFFFFFFFFFFFFFFFFFFFFFFFF72
:101E8000FFFFFFFFFFFFFFFFFFFFFFFFFFFFFFFF62
:101E9000FFFFFFFFFFFF0000C618FFE0FFE0841018
:101EA00084008410C618FFE1FFE1C618FFE0FFE0E0
:101EB000FFE0FFE0FFE0FFE0FFE0FFE0C618C6182C
:101EC0000000C618FFFFFFFFFFFFFFFFFFFFFFFF40
:101ED000FFFFFFFFFFFFFFFFFFFFFFFFFFFFFFFF12
:101EE000FFFFFFFFFFFFFFFFFFFFFFFFFFFFFFFF02
:101EF000FFFFFFFFFFFFFFFFFFFFFFFFFFFFFFFFF2
:101F0000FFFFFFFFFFFFFFFFFFFFFFFFFFFFFFFFE1
:101F1000FFFFFFFFFFFFFFFFFFFFFFFFFFFFFFFFD1
:101F2000FFFFFFFFFFFFFFFFFFFFFFFFFFFFFFFFC1
:101F3000FFFFFFFFFFFF0000C618FFE0FFE0C6182D
:101F4000C618000000000000B5B6C618C618FFE0AD
:101F5000FFE0FFE0FFE0FFE0FFE0FFE1C618FFE089
:101F60000000FFFFFFFFFFFFFFFFFFFFFFFFFFFF7F
:101F7000FFFFFFFFFFFFFFFFFFFFFFFFFFFFFFFF71
:101F8000FFFFFFFFFFFFFFFFFFFFFFFFFFFFFFFF61
:101F9000FFFFFFFFFFFFFFFFFFFFFFFFFFFFFFFF51
:101FA000FFFFFFFFFFFFFFFFFFFFFFFFFFFFFFFF41
:101FB000FFFFFFFFFFFFFFFFFFFFFFFFFFFFFFFF31
:101FC000FFFFFFFFFFFFFFFFFFFFFFFFFFFFFFFF21
:101FD000FFFFFFFFFFFF8410FFE0FFE0FFE0FFE0F7
:101FE000C616C616C616FFE0C6188401C618C61661
:101FF000C618FFE0FFE1FFE0FFE0C616FFE0C618ED
:10200000FFFF0000FFFFFFFFFFFFFFFFFFFFFFFFDE
:10201000FFFFFFFFFFFFFFFFFFFFFFFFFFFFFFFFD0
:10202000FFFFFFFFFFFFFFFFFFFFFFFFFFFFFFFFC0
:10203000FFFFFFFFFFFFFFFFFFFFFFFFFFFFFFFFB0
:10204000FFFFFFFFFFFFFFFFFFFFFFFFFFFFFFFFA0
:10205000FFFFFFFFFFFFFFFFFFFFFFFFFFFFFFFF90
:10206000FFFFFFFFFFFFFFFFFFFFFFFFFFFFFFFF80
:10207000FFFFFFFF8410C618FFE0FFE0FFE0FFE076
:10208000C616C618C618FFE0C618BDF7C618FFE08A
:10209000C618FFE0C618FFE0FFE0FFE0FFE1FFE148
:1020A000C6160000FFFFFFFFFFFFFFFFFFFFFFFF60
:1020B000FFFFFFFFFFFFFFFFFFFFFFFFFFFFFFFF30
:1020C000FFFFFFFFFFFFFFFFFFFFFFFFFFFFFFFF20
:1020D000FFFFFFFFFFFFFFFFFFFFFFFFFFFFFFFF10
:1020E000FFFFFFFFFFFFFFFFFFFFFFFFFFFFFFFF00
:1020F000FFFFFFFFFFFFFFFFFFFFFFFFFFFFFFFFF0
:10210000FFFFFFFFFFFFFFFFFFFFFFFFFFFFFFFFDF
:10211000FFFFFFFF0000C618FFE0FFE0FFE0FFE069
:10212000FFE0FFE0FFE0C618C6180000C618FFE099
:10213000C618FFE0C618FFE0FFE0FFE1840083C09F
:10214000FFE08020FFFFFFFFFFFFFFFFFFFFFFFF1C
:10215000FFFFFFFFFFFFFFFFFFFFFFFFFFFFFFFF8F
:10216000FFFFFFFFFFFFFFFFFFFFFFFFFFFFFFFF7F
:10217000FFFFFFFFFFFFFFFFFFFFFFFFFFFFFFFF6F
:10218000FFFFFFFFFFFFFFFFFFFFFFFFFFFFFFFF5F
:10219000FFFFFFFFFFFFFFFFFFFFFFFFFFFFFFFF4F
:1021A000FFFFFFFFFFFFFFFFFFFFFFFFFFFFFFFF3F
:1021B000FFFFFFFF0000C618FFE0FFE0FFE0FFE0C9
:1021C000FFE0C618BDF700008410C618FFE1FFE06D
:1021D000C616FFE0C618FFE0840F84018410841047
:1021E00084008410F79EFFFFFFFFFFFFFFFFFFFF4C
:1021F000FFFFFFFFFFFFFFFFFFFFFFFFFFFFFFFFEF
:10220000FFFFFFFFFFFFFFFFFFFFFFFFFFFFFFFFDE
:10221000FFFFFFFFFFFFFFFFFFFFFFFFFFFFFFFFCE
:10222000FFFFFFFFFFFFFFFFFFFFFFFFFFFFFFFFBE
:10223000FFFFFFFFFFFFFFFFFFFFFFFFFFFFFFFFAE
:10224000FFFFFFFFFFFFFFFFFFFFFFFFFFFFFFFF9E
:10225000FFFFFFFF8410C618FFE0FFE0FFE0FFE094
:10226000FFE1FFE0C616FFDFC618C618C618FFE07C
:10227000FFE0FFE0C618C61684008410BDF7840F87
:10228000C6187BC0002000000000FFDFFFFFFFFF3B
:10229000FFFFFFFFFFFFFFFFFFFFFFFFFFFFFFFF4E
:1022A000FFFFFFFFFFFFFFFFFFFFFFFFFFFFFFFF3E
:1022B000FFFFFFFFFFFFFFFFFFFFFFFFFFFFFFFF2E
:1022C000FFFFFFFFFFFFFFFFFFFFFFFFFFFFFFFF1E
:1022D000FFFFFFFFFFFFFFFFFFFFFFFFFFFFFFFF0E
:1022E000FFFFFFFFFFFFFFFFFFFFFFFFFFFFFFFFFE
:1022F000FFFFFFFFFFFF840FFFE1C618C618FFE0D6
:10230000C616BDF6BDB684108020BDF6C618FFE126
:10231000C618FFE0FFE0FFE0C61884108410FFE05D
:10232000FFDE0000C618C618C618084108410000A4
:10233000F79EFFFFFFFFFFFFFFFFFFFFFFFFFFFF16
:10234000FFFFFFFFFFFFFFFFFFFFFFFFFFFFFFFF9D
:10235000FFFFFFFFFFFFFFFFFFFFFFFFFFFFFFFF8D
:10236000FFFFFFFFFFFFFFFFFFFFFFFFFFFFFFFF7D
:10237000FFFFFFFFFFFFFFFFFFFFFFFFFFFFFFFF6D
:10238000FFFFFFFFFFFFFFFFFFFFFFFFFFFFFFFF5D
:10239000FFDF000000000000C618FFE0FFE0C618E5
:1023A000C6188400BDF7BDF68400C618FFE0FFE044
:1023B000FFE0C616FFE1C618FFE1C618BDF67800BB
:1023C0000000000000007BCF8410C618C618C61895
:1023D000C61800200000FFDFFFFFFFFFFFFFFFFF29
:1023E000FFFFFFFFFFFFFFFFFFFFFFFFFFFFFFFFFD
:1023F000FFFFFFFFFFFFFFFFFFFFFFFFFFFFFFFFED
:10240000FFFFFFFFFFFFFFFFFFFFFFFFFFFFFFFFDC
:10241000FFFFFFFFFFFFFFFFFFFFFFFFFFFFFFFFCC
:10242000FFFFFFFFFFFFFFFFFFFFFFFFFFDF0000DA
:1024300000000841C61884107BC0C618FFE1C6180A
:10244000FFE0C61884018401C618FFE0FFE0FFE149
:10245000C618FFE1C618B5B67800000000000000FD
:1024600000000841084100200000B5B6C618C61893
:10247000C618C61884100000B5B6FFFFFFFFFFFFA7
:10248000FFFFFFFFFFFFFFFFFFFFFFFFFFFFFFFF5C
:10249000FFFFFFFFFFFFFFFFFFFFFFFFFFFFFFFF4C
:1024A000FFFFFFFFFFFFFFFFFFFFFFFFFFFFFFFF3C
:1024B000FFFFFFFFFFFFFFFFFFFFFFFFFFFFFFFF2C
:1024C000FFFFFFFFFFFFFFFFFFDF00000020C61838
:1024D000C618C618C618C61884100000C618C61834
:1024E000FFE0FFE0FFE0FFE0C618C618C618BDF722
:1024F0007BC000000020C618C618C6188410C61875
:10250000C618C618C618C618C618C618C618C618DB
:10251000C618C618C618C61808417BCFFFFFFFFFB4
:10252000FFFFFFFFFFFFFFFFFFFFFFFFFFFFFFFFBB
:10253000FFFFFFFFFFFFFFFFFFFFFFFFFFFFFFFFAB
:10254000FFFFFFFFFFFFFFFFFFFFFFFFFFFFFFFF9B
:10255000FFFFFFFFFFFFFFFFFFFFFFFFFFFFFFFF8B
:10256000FFFFFFFFFFFFB5B600008410C618C618B6
:10257000C618C618C618C618C618C6180000B5B6BC
:10258000BDF7C618C618C618BDF7B5B600000000DE
:102590008410C618C618C618C618C618C618C61895
:1025A000C618C618C618C618C618C618C618C6183B
:1025B000C618C618C618C618C61800200000FFFFA7
:1025C000FFFFFFFFFFFFFFFFFFFFFFFFFFFFFFFF1B
:1025D000FFFFFFFFFFFFFFFFFFFFFFFFFFFFFFFF0B
:1025E000FFFFFFFFFFFFFFFFFFFFFFFFFFFFFFFFFB
:1025F000FFFFFFFFFFFFFFFFFFFFFFFFFFFFFFFFEB
:10260000FFFFB5B60000C618C618C618C618C6180B
:10261000C618C618C618C618C618C618C618C618CA
:10262000C61884108410C618C618C618C618C6184E
:10263000C618C618C618C618C618C618C618C618AA
:10264000C618C618C618C618C618C618C618C6189A
:10265000C618C618C618C618C618C618C618000068
:102660000000FFFFFFFFFFFFFFFFFFFFFFFFFFFF78
:10267000FFFFFFFFFFFFFFFFFFFFFFFFFFFFFFFF6A
:10268000FFFFFFFFFFFFFFFFFFFFFFFFFFFFFFFF5A
:10269000FFFFFFFFFFFFFFFFFFFFFFFFFFFFFFDF6A
:1026A00000000841C618C618C618C618C618C618AD
:1026B000C618C618C618C618C618C618C618C6182A
:1026C000C618C618C618C618C618C618C618BDF744
:1026D000C618C618C618C618C618C618C618C6180A
:1026E000C618C618C618C618C618C618C618C618FA
:1026F000C618C618C618C618C618C618C618C618EA
:1027000084100000FFFFFFFFFFFFFFFFFFFFFFFF41
:10271000FFFFFFFFFFFFFFFFFFFFFFFFFFFFFFFFC9
:10272000FFFFFFFFFFFFFFFFFFFFFFFFFFFFFFFFB9
:10273000FFFFFFFFFFFFFFFFFFFFFFFFFFDF0000C7
:102740008410C618C618C618C618C618C618C618E3
:10275000C618C618C618C618C618C618C618C61889
:10276000C618C618C618C618C618C618C618000057
:102770008410C618C618C618C618C618C618C618B3
:10278000C618C618C618C618C618C618C618C61859
:10279000C618C618C618C618C618C618C618C61849
:1027A000C6180000B5B6FFFFFFFFFFFFFFFFFFFFEA
:1027B000FFFFFFFFFFFFFFFFFFFFFFFFFFFFFFFF29
:1027C000FFFFFFFFFFFFFFFFFFFFFFFFFFFFFFFF19
:1027D000FFFFFFFFFFFFC618FFFF00000020C61825
:1027E000C618C618C618C618C618C618C618C618F9
:1027F000C618C618C618C61884100000C618C61811
:10280000C618C618C618C618C618C6180000841000
:1028100084108410BDF7C618C618C618BDF7C618B0
:10282000C618C618C618C618C618C618C618C618B8
:10283000C618C618C618C618C618C618C618C618A8
:10284000C618C61808410000FFFFFFFFFFFFFFFF8B
:10285000FFFFFFFFFFFFFFFFFFFFFFFFFFFFFFFF88
:10286000FFFFFFFFFFFFFFFFFFFFFFFFFFFFFFFF78
:10287000FFFFFFFFFFFFFFFF00000020C618FFFF64
:10288000C618C618C618C618C618C618C618C61858
:10289000C618C618C618C61884100000C618C61870
:1028A000C618C618C618C618C6187BCF00208410D4
:1028B000841084108410C618C6187BCF0000000056
:1028C000C618C618C618C618C618C618C618C61818
:1028D000C618C618C618C618C618C618C618C61808
:1028E000C618C618C61800200000FFFFFFFFFFFF34
:1028F000FFFFFFFFFFFFFFFFFFFFFFFFFFFFFFFFE8
:10290000FFFFFFFFFFFFFFFFFFFFFFFFFFFFFFFFD7
:10291000FFFFFFFFFFFF00000841C618C618C618DA
:10292000C618C618C618C618C618C618C618C618B7
:10293000C618C618C61884100000C618C618C618CF
:10294000C618C618C618C618BDF7000000007BCF11
:102950007BD084108410BDF77BCF0020C616C6182C
:1029600000007BCFC618C618C618C618C618C618E9
:10297000C618C618C618C618C618C618C618C61867
:10298000C618C618C618C61808410000FFFFFFFF8A
:10299000FFFFFFFFFFFFFFFFFFFFFFFFFFFFFFFF47
:1029A000FFFFFFFFFFFFFFFFFFFFFFFFFFFFFFFF37
:1029B000FFFFFFDF0020C618C618C618C618C618C5
:1029C000C618C618C618C618C618C618C618C61817
:1029D000C618C618BDF77BCF0020C618C618C61883
:1029E000C618C618C618C6180000841084108420A3
:1029F00008410841002000200841C616FFE0FFE022
:102A0000C61608410000C618C618C618C618C6184B
:102A1000C618C618C618C618C618C618C618C618C6
:102A2000C618C618C618C618C6188050F79EFFFFED
:102A3000FFFFFFFFFFFFFFFFFFFFFFFFFFFFFFFFA6
:102A4000FFFFFFFFFFFFFFFFFFFFFFFFFFFFFFFF96
:102A50007BCF0000C618C618C618C618C618C618F8
:102A6000C618C618C618C618C618C618C618C61876
:102A7000C618C61884100000C618C618C618C6188E
:102A8000C618C618C618BDF70020C618FFE0FFE03C
:102A9000FFE0FFE0FFE0C616FFE0FFE0FFE0FFE041
:102AA000FFE0FFE0C6180000C618C618C618C61812
:102AB000C618C618C618C618C618C618C618C61826
:102AC000C618C6180000C618C618C6180000FFFFB2
:102AD000FFFFFFFFFFFFFFFFFFFFFFFFFFFFFFFF06
:102AE000FFFFFFFFFFFFFFFFFFFFFFFFFFFF7BCFAA
:102AF0000000C618C618C618C618C618C618C618C4
:102B0000C618C618C618C618C618C618C618C618D5
:102B1000C618841084100000C618C618C618C61837
:102B2000C618C618C6180000C618FFE0FFE0FFE090
:102B3000FFE0FFE0FFE0FFE0FFE0FFE0FFE0FFE09D
:102B4000FFE0FFE0FFE084100000C618C618C618BA
:102B5000C618C618C618C618C618C618C618C61885
:102B6000C618841000200000C618C618FFFF000019
:102B7000FFFFFFFFFFFFFFFFFFFFFFFFFFFFFFFF65
:102B8000FFFFFFFFFFFFFFFFFFFFFFFFB5B60000E6
:102B9000C618C618C618C618C618C618C618C61845
:102BA000C618C618C618C618C618C618C618C61835
:102BB000C61884100000C618C618C618C618C6184D
:102BC000C618C618C6180000C618FFE0FFE0FFE0F0
:102BD000FFE0FFE0FFE0FFE0FFE0FFE0FFE0FFE0FD
:102BE000FFE0FFE0FFE0C6188020BDF7C618C6185A
:102BF000C618C618C618C618C618C618C618C618E5
:102C0000C618C618841000007BCFC618C61800006E
:102C1000BDF7FFFFFFFFFFFFFFFFFFFFFFFFFFFF0E
:102C2000FFFFFFFFFFFFFFFFFFFFB5B60020C61845
:102C3000C618C618C618C618C618C618C618C618A4
:102C4000C618C618C618C618C618C618C618C61894
:102C5000C61884100000C618C618C618C618C618AC
:102C6000C618C618C6180000FFE0FFE0FFE0FFE04E
:102C7000FFE0FFE0FFE0FFE0FFE0FFE0FFE0FFE05C
:102C8000FFE0FFE0FFE0FFE0FFE000000000C6180B
:102C9000C618C618C618C61884100000C618C6186C
:102CA000C618C6188410841000007BCFC618C6183A
:102CB0000000FFFFFFFFFFFFFFFFFFFFFFFFFFFF22
:102CC000FFFFFFFFFFFFFFFFFFFF0000C618C61852
:102CD000C618C618C618C618C618C618C618C61804
:102CE000C618C618C618C618C618C618C618C618F4
:102CF000841000000020C618C618C618C618C618CA
:102D0000C618C618C6188400FFE0FFE0FFE0FFE029
:102D1000FFE0FFE0FFE0FFE0FFE0FFE0FFE0FFE0BB
:102D2000FFE0FFE0FFE0FFE0FFE0C6180000C6188C
:102D3000C618C618C618C618C61800200000C6183F
:102D4000C618C618C618841084100000C618C61805
:102D5000C6180000FFFFFFFFFFFFFFFFFFFFFFFFA1
:102D6000FFFFFFFFFFFFFFFF7BCFC618C618C61887
:102D7000C618C618C618C618C618C618C618C61863
:102D8000C618C618C618C618C618C618C618C61853
:102D900084100000C618C618C618C618C618C6186B
:102DA000C618C618C618C618FFE0FFE0FFE0FFE02F
:102DB000FFE0FFE0FFE0FFE0FFE0FFE0FFE0FFE01B
:102DC000FFE0FFE0FFE0FFE0FFE0C6168410000038
:102DD000C618C618C618C618C61884100000C6182B
:102DE000C618C618C618841084100000C618C61865
:102DF000C6180000FFFFFFFFFFFFFFFFFFFFFFFF01
:102E0000FFFFFFFFFFFF00008410C618C618C6189A
:102E1000C618C618C618C618C618C618C61884100C
:102E20000000C618C618C618C618C618C618C61890
:102E300084100000C618C618C618C618C618C618CA
:102E4000C618C6180000C618FFE1FFE0FFE0FFE06B
:102E5000C618FFE0FFE0FFE0FFE0FFE0FFE0FFE07B
:102E6000FFE0FFE0FFE0FFE0FFE0FFE0FFE08020A9
:102E70007BCFC618C618C618C61884108410000068
:102E8000C618C618C618C618841084100000C618C4
:102E9000C618C6180000FFFFFFFFFFFFFFFFFFFF80
:102EA000FFFFFFFFB5B60020C618C618C618C61823
:102EB000C618C618C618C618C618C618C61884106C
:102EC0000000C618C618C618C618C618C618C618F0
:102ED00084108410C618C618C618C618C618C61896
:102EE000C618C6180000C618C618C618BDF7BDF724
:102EF000C618C618C618FFE1C618FFE1FFE1C618DC
:102F0000FFE0FFE0FFE0FFE1FFE0FFE0FFE1C618C8
:102F10000000C618C618C618C618841084100020F1
:102F20000000C618C618C618841084100000C61801
:102F3000C618C6180000FFFFFFFFFFFFFFFFFFFFDF
:102F4000FFFFFFFF0000C618C618C618C618C6182F
:102F5000C618C618C618C618C618C61884100000A9
:102F60008410C618C618C618C618C618C618C618BB
:102F7000C618C618C618C618C618C618C618C61861
:102F8000C618C6180000780000000000084108417B
:102F90000841002000000000C618FFE1C618C61650
:102FA000FFE0C618C618FFE0C6187BC0000000008E
:102FB0000000C618C618C618C618C6188410841093
:102FC0000000C618C618C618C61884100000C61817
:102FD000C618C6180000FFFFFFFFFFFFFFFFFFFF3F
:102FE000FFFFFFFFC618C618C618B5B6C618C61824
:102FF000C618C618C618C618C618C6188410000009
:10300000C618C618C618C618C618C618C618C618D0
:10301000C618C618C618C618BDF784108410C6187E
:10302000C618C6180000FFFFFFFFFFFFC618FFFF0E
:10303000FFFFFFFFFFFFFFFF08617BCFC618FFE028
:10304000FFE1FFE0C6187BCF0000C618FFFFFFFFBF
:10305000FFFF0000C618C618C618C61884108410D2
:1030600084107BCFC618C618C61884100020BDF780
:10307000C618C618C6187BCFFFFFFFFFFFFFFFFF74
:10308000FFFFFFFFC618C618BDF70000C618C61818
:10309000C618C618C618C618C618C6188410000068
:1030A000C618C618C618C618C618C618C618C61830
:1030B000C618C618C618C618841084108410C618FE
:1030C000C618C6180000C618C618FFFFFFFFFFFF8E
:1030D000FFFFFFFFFFFFFFFFFFFF08417BC0C61898
:1030E000C618FFE100008070FFFFC618C618C6189A
:1030F000FFFF085000007BCFC618C618841084104C
:1031000084100000C618C618C618C61884107BCFD5
:10311000C618C618C6180000FFFFFFFFFFFFFFFF1D
:10312000FFFFFFFFBDF7841084100000C618C6180B
:10313000C618C618C618C618C618BDF784100000F1
:10314000C618C618C618C618C618C618C618C6188F
:10315000C618C618C618BDF784108410C618C6183D
:10316000C618C6180000C618FFFFC618FFFFFFFFED
:10317000FFFFFFFFFFFFFFFFFFFFFFFF08417BCFC8
:10318000FFE1B5B60861FFFFFFFFFFFFC618FFFFB5
:10319000C618C618FFFF086100207BCFB5B68410A3
:1031A00084100020B5B6C618C618C618C618C618AA
:1031B000C618C618C6180000FFFFFFFFFFFFFFFF7D
:1031C000FFFFFFFF8410841084108410C618C618F7
:1031D000C618C618C618C618C61884108410000071
:1031E000C618C618C618C618C618C618C618C618EF
:1031F000C618C618C618841084108410C618C618BD
:10320000C618C6180000C618C618C618FFFFFFFF6C
:10321000FFFFFFFFFFFFFFFFFFFFFFFFFFFF0000BC
:10322000C6180000FFFFFFFFFFFFFFFFFFFFFFFFCC
:10323000FFFFC618FFFFFFFFC61884300000000024
:103240007BCF84100000C618C618C618C618C6184A
:10325000C618C618C6180000FFFFFFFFFFFFFFFFDC
:10326000FFFFFFFF841084107BCFC618C618C61856
:10327000C618C618C618C618C618841000008410D0
:10328000C618C618C618C618C618C618C618C6184E
:10329000C618C618C618841084108410C618C6181C
:1032A000C618C6180000C618C618C618FFFFFFFFCC
:1032B000FFFFFFFFFFFFFFFFFFFFFFFFFFFFFFFF1E
:1032C0000000C618FFFFFFFFFFFFFFFFFFFFFFFF2C
:1032D000FFFFFFFFFFFFC618C618FFFFFFFFC6185E
:1032E000FFFF000000000000C618C618C618C61868
:1032F000C618C618C6180020FFFFFFFFFFFFFFFF1C
:10330000FFFFFFFF841084100000C618C618C618FF
:10331000C618C618C618C618C61884100000C618E5
:10332000C618C618C618C618C618C618C618C618AD
:10333000C618C6188410841084108410BDF7C618EF
:10334000C618C6180000C618C618C618FFFFFFFF2B
:10335000FFFFFFFFFFFF7BCF0000FFDFFFFFFFFF4F
:103360000000FFFFFFFFFFFFFFFFFFFFFFFFFFFF6B
:10337000FFFFFFFFFFFFFFFF7BCF7BCFFFFFC618E5
:10338000C6180000C61800007BD0C618C618C6189C
:10339000C618C6187BCFC618FFFFFFFFFFFFFFFF51
:1033A000FFFFFFFF841084100000C618C618C6185F
:1033B000C618C618C618C618C61884100000C61845
:1033C000C618C618C618C618C618C618C618C6180D
:1033D000C618C618841084108410841000000000E1
:1033E000000000000020C618C618FFFFFFFFFFFF07
:1033F000FFFFFFFFFFFF000000000000FFFFFFFFD7
:103400000000FFFFFFFFFFFFFFFFFFFFFFFFFFFFCA
:10341000FFFFFFFFFFFFFFFF000000007BCFFFFF6C
:10342000FFFF0000FFE084100000BDF7C618C618BB
:10343000C618C6180000FFFFFFFFFFFFFFFFFFFFDA
:10344000FFFFFFFF841084100000C618C618C618BE
:10345000C618C618C618C618841084100000C618EE
:10346000C618C618C618C618C618C618C618C6186C
:10347000C61800008410000F00000000C618FFFFEF
:10348000C618C618FFFFFFFFC618C618FFFFFFFFCC
:10349000FFFFFFFFFFFF002000008430FFFFFFFF62
:1034A0000000FFFFFFFFFFFFFFFFFFFFFFFFFFFF2A
:1034B000FFFFFFFFFFFFFFFF00000000C618FFFF38
:1034C000FFFF0000C618842084100020C618C6180C
:1034D000C618C6180000FFFFFFFFFFFFFFFFFFFF3A
:1034E000FFFFFFFF0000000F0000C618C618C61837
:1034F000C618C618C618C618841084100000C6184E
:10350000C618C618C618C618C618C618C618C618CB
:10351000C618000000000841C6188410FFFFFFFF16
:10352000C618FFFFFFFFFFFFFFFFC618FFFFFFFFEB
:10353000FFFFFFFFFFFFFFFFFFFFFFFFFFFFFFFF9B
:103540000000FFFFFFFFFFFFFFFFFFFFFFFFFFFF89
:10355000FFFFFFFFFFFFFFFFFFFFFFFFFFFFFFFF7B
:10356000FFFF0000C616FFE0FFE0C6160000BDF733
:10357000C6180000FFFFFFFFFFFFFFFFFFFFFFFF79
:10358000FFFFFFFF841000008410C618C618C6187D
:10359000C618C618C618C618841084100000C618AD
:1035A000C618C618C618C618C618C618C618C6182B
:1035B0007BCF84108410FFE0FFE08410BDF7FFFF95
:1035C000FFFFFFFFFFFFFFFFFFFFFFFFFFFFFFFF0B
:1035D000FFFFFFFFFFFFFFFFFFFFFFFFFFFFFFFFFB
:1035E0000000FFFFFFFFFFFFFFFFFFFFFFFFFFFFE9
:1035F000FFFFFFFFFFFFFFFFFFFFFFFFFFFFFFFFDB
:10360000FFFF0000FFE0C618C616FFE0C618000066
:1036100000008430FFFFFFFFFFFFFFFFFFFFFFFF02
:10362000FFFFFFFFC6180000C618C618C618C61848
:10363000C618C618C6188410841084100000C61856
:10364000C618C618C618C618C618C618C618C6188A
:103650000000C618C618FFE0FFE0C6180000FFFF14
:10366000FFFFFFFFFFFFFFFFFFFFFFFFFFFFFFFF6A
:10367000FFFFFFFFFFFFFFFFFFFFFFFFFFFFFFFF5A
:103680000020B5B6FFFFFFFFFFFFFFFFFFFFFFFFBB
:10369000FFFFFFFFFFFFFFFFFFFFFFFFFFFFFFFF3A
:1036A000FFFF0020C618C618C618FFE0FFE00000A4
:1036B000FFFFFFFFFFFFFFFFFFFFFFFFFFFFFFFF1A
:1036C000FFFFFFFFC6180000C618C618C618C618A8
:1036D000C618C618C6188410841084100000C618B6
:1036E000C618C618C618C618C618C618C618C618EA
:1036F0000000C618C618FFE0FFE1C6180000FFFF73
:10370000FFFFFFFFFFFFFFFFFFFFFFFFFFFFFFFFC9
:10371000FFFFFFFFFFFFFFFFFFFFFFFFFFFF7BCF6D
:10372000FFFF0000FFFFFFFFFFFFFFFFFFFFFFFFA7
:10373000FFFFFFFFFFFFFFFFFFFFFFFFFFFFFFFF99
:10374000FFDFC618FFE0FFE0FFE0FFE0FFE0000062
:10375000FFFFFFFFFFFFFFFFFFFFFFFFFFFFFFFF79
:10376000FFFFFFFFC6180000C618C618C618C61807
:10377000C618C618C6188410841084100000C61815
:10378000C618C618C618C618C618C618C618841093
:103790000000C618FFE0FFE0C618FFE1C618FFDF13
:1037A000FFFFFFFFFFFFFFFFFFFFFFFFFFFFFFFF29
:1037B000FFFFFFFFFFFFFFFFFFFFFFFFFFDF000037
:1037C000C61684017BCFFFFFFFFFFFFFFFFFFFFF58
:1037D000FFFFFFFFFFFFFFFFFFFFFFFFFFFFFFFFF9
:1037E0000000C618FFE0FFE0FFE0FFE0FFE00000A0
:1037F000FFFFFFFFFFFFFFFFFFFFFFFFFFFFFFFFD9
:10380000FFFFFFFFC6180000C618C618C618C61866
:10381000C618C618C6188410841084100000C61874
:10382000C618C618C618C618C618C618C618000086
:103830008020FFE0FFE0FFE0C618C618C6180000B1
:10384000FFFFFFFFFFFFFFFFFFFFFFFFFFFFFFFF88
:10385000FFFFFFFFFFFFFFFFFFFFFFFF0000C61896
:10386000FFE1C6180000FFFFFFFFFFFFFFFFFFFFA4
:10387000FFFFFFFFFFFFFFFFFFFFFFFFFFFF000056
:103880008430C618C618FFE0FFE1FFE0FFE100004A
:10389000C618FFFFFFFFFFFFFFFFFFFFFFFFFFFF58
:1038A000FFFFFFFFC6180000C618C618C618C618C6
:1038B000C618C618BDF77BCF00000000000000004E
:1038C000C618C618BDF7B5B67BCF000000000000D3
:1038D000840F840FBDF6C618C618C618FFE0C618B8
:1038E00084100000BDF7FFFFFFFFFFFFFFFFFFFF9A
:1038F000FFFFFFFFFFFFFFFF802080008020802070
:1039000080208020802083C083C07BCFF79EFFFF74
:10391000FFFFFFFFFFFFFFFFB5B600008401C618E1
:10392000C6188400840084008400BDF6C618840094
:103930008410FFFFFFFFFFFFFFFFFFFFFFFFFFFF01
:10394000FFFFFFFFC6180000C618C618B5B67BCF2C
:103950000000000000008410C618FFE0C61600201A
:103960000000002000208041841083CF8410F820C4
:10397000F800F800F80083C083C0C618FFE0FFE03D
:10398000FFE0C6188401000000007BCFB5B6B5B6D5
:103990007BCF000083C080208410841084108410AA
:1039A000841084108410841084108400840000200B
:1039B00000200000002008418410C618FFE0BDF67A
:1039C0008000F800F800F800F800F800840FC6182E
:1039D0000000FFFFFFFFFFFFFFFFFFFFFFFFFFFFF5
:1039E000FFFFFFFFC6180841000000000000002094
:1039F000841084100000C618C616FFE0FFE0FFE048
:103A0000C616C616C618BDF78000F80083CF840F0F
:103A1000F800F800F800F80083C08000C618FFE046
:103A2000FFE0C616C618C6188410084108410841B0
:103A3000840183C084018410841084108410841055
:103A4000841084108410841084108410841083C027
:103A5000C618C616C618C618C618C618C6188000D6
:103A6000F800F800F800F800F800F8008000C61828
:103A70000000FFFFFFFFFFFFFFFFFFFFFFFFFFFF54
:103A8000FFFFFFFFC618C618C618C61800000000C2
:103A9000841084100000C618FFE0FFE0FFE0FFE0A4
:103AA000FFE0FFE08400F800F800F800F800F800FC
:103AB000F800F800F800F800F800F8008020C618B8
:103AC000FFE0FFE1C616FFE0FFE1FFE0FFE1C618FF
:103AD0008400841084108410841084108410841056
:103AE0008410841084108410841084108410841036
:103AF00083C0C618C616FFE0FFE0C618800083CF5B
:103B0000F800F800F800F800F800F800F80080006D
:103B10000000FFFFFFFFFFFFFFFFFFFFFFFFFFFFB3
:103B2000FFFFFFFFC618C618C618C618C6180841FA
:103B300000007BCF0000C618FFE0FFE0FFE0C618E2
:103B4000FFE0FFE18000F820F800F800F800F8003E
:103B5000F800F800F800F800F800F800F800C618BF
:103B6000FFE0FFE0FFE0FFE0C616C618C618840FAE
:103B700084108410841084108410841084108410A5
:103B80008410841084108410841084108410841095
:103B900084108400FFE0FFE0FFE0BDF78000F80044
:103BA000F800F800F800F800F800F800F8008400C9
:103BB0000000FFFFFFFFFFFFFFFFFFFFFFFFFFFF13
:103BC000FFFFFFFFC618C618C618C618C618C618C5
:103BD000C61808410000C618FFE0FFE0FFE0C61865
:103BE000C618C6188410F800F800F800F800F800AD
:103BF000F800F800F800F800F800F800F800840F6A
:103C0000FFE1FFE0FFE0FFE0FFE0C618C618840018
:103C10008410841084108410841084108410841004
:103C200084108410841084108410841084108410F4
:103C300084108400FFE0FFE0FFE08000F800F8005F
:103C4000F800F800F800F800F800F800F80080002C
:103C50000000FFFFFFFFFFFFFFFFFFFFFFFFFFFF72
:103C6000FFFFFFFFC618C618C618C618C618C61824
:103C7000C618C618C61883C0C618FFE0FFE0C616EF
:103C8000C6188410F800F800F800F800F800F800F2
:103C9000F800F800F800F800F800F800F80083C019
:103CA000C618FFE0FFE0FFE0FFE0FFE1C61883C0B9
:103CB00084108410802083CF84108410841084109A
:103CC000841084108410841084108410840F802049
:103CD00084108400C618FFE0C61883C0F800F800FE
:103CE000F800F800F800F800F800F800F80080008C
:103CF0008410FFFFFFFFFFFFFFFFFFFFFFFFFFFF3E
:103D0000FFFFFFFFC618C618C618C618C618C61883
:103D1000C618C618C6180000C618FFE0FFE0FFE08E
:103D2000FFE0840F83CFF800F800F800F800F800F7
:103D3000F800F800F800F800F800F800F800840037
:103D4000C618FFE0FFE0FFE0FFE0C618C6188020BD
:103D5000C6188410BDF78020802083CF8410841083
:103D6000841084108410840F840080208400BDF7A8
:103D7000841083C0C618FFE0C6188000F800F80061
:103D8000F800F800F800F800F800F800F80000006B
:103D9000C618FFFFFFFFFFFFFFFFFFFFFFFFFFFF53
:103DA000FFFFFFFFC618C618C618C618C618C618E3
:103DB000C618C618C6180000840FC618FFE0FFE03A
:103DC000C6188410F8008400F800F800F800F80025
:103DD000F800F800F800F800F800F800F800840097
:103DE000FFE0FFE0FFE0FFE0FFE0C618C618C618DE
:103DF000840FBDF784108410841084108400802008
:103E0000840080208020840084108410841084101A
:103E100083C08410FFE0C618C61883C0F800F800FD
:103E2000F800F800F800F800F800F800841000002E
:103E3000FFFFFFFFFFFFFFFFFFFFFFFFFFFFFFFF92
:103E4000FFFFFFFFC618C618C618C618C618C61842
:103E5000C618BDF7000000000000FFE0FFE0FFE033
:103E6000C618C618F800F800F800F800F800F800C6
:103E7000F800F800F800F800F800F800F8008000FA
:103E8000C618FFE0FFE0FFE0FFE0FFE0C616C6183F
:103E90008000841084108410841084108410841096
:103EA000841084108410841084108410BDF7BDF732
:103EB00083C0C616FFE0FFE0FFE08000F800F800D6
:103EC000F800F800F800F800F800F800840F00008F
:103ED000FFFFFFFFFFFFFFFFFFFFFFFFFFFFFFFFF2
:103EE000FFFFFFFFC618C618C618C618C618000080
:103EF00000008400840F84100000C618FFE0FFE07B
:103F0000FFE0C6188400F800F800F800F800F80098
:103F1000F800F800F800F800F800F800F800C618FB
:103F2000C618FFE0FFE0FFE0FFE0FFE0FFE0C6189B
:103F3000C61884008400840FBDF784108410841098
:103F40008410841084108410841083CF8400840132
:103F5000C618FFE0FFE0FFE0FFE084018400F80006
:103F6000F800F800F800F800F800F8207800FFFFEB
:103F7000FFFFFFFFFFFFFFFFFFFFFFFFFFFFFFFF51
:103F8000FFFFFFFFC618C618C6187BCF00008410BD
:103F9000840F84008410840F84107BC0FFE0FFE155
:103FA000FFE0FFE08401F820F800F800F800F800D6
:103FB000F800F800F800F800F800F8008000C616D5
:103FC000FFE1FFE0FFE0FFE0FFE0FFE0FFE1FFE1F6
:103FD000FFE0C616C616840184018020840083C0D9
:103FE00083C083C0840080208401C618C616C6160C
:103FF000C616C618C618FFE0FFE0C6188020F820D5
:10400000F800F800F800F800F80083C00000FFFF97
:10401000FFFFFFFFFFFFFFFFFFFFFFFFFFFFFFFFB0
:10402000FFFFFFFFC618C618F7DF0020000084104E
:10403000840084108410840084100000C618FFE0FF
:10404000FFE0FFE0FFE08401F800F800F800F8006E
:10405000F800F800F800F820F82083C0C618FFE048
:10406000FFE0FFE0FFE0FFE0FFE0FFE0FFE0FFE058
:10407000FFE0FFE0FFE0FFE0FFE0C618C618C6184B
:10408000C618C618C618C618C618C618FFE0FFE03E
:10409000FFE0FFE0FFE0FFE0FFE0FFE0C61680206A
:1040A0008000F800F820F8008020BDF7FFFFFFFF38
:1040B000FFFFFFFFFFFFFFFFFFFFFFFFFFFFFFFF10
:1040C000FFFFFFFFC61800000000841000008410EE
:1040D000840084008400840F8400840F0000FFE1CA
:1040E000FFE0FFE0FFE0FFE0C618840180208000D1
:1040F0008020802084008401C618C618C618FFE0FE
:10410000FFE0FFE0FFE0FFE0FFE0FFE0FFE0FFE0B7
:10411000FFE0FFE0FFE0FFE0FFE0FFE0FFE0FFE0A7
:10412000FFE0FFE0FFE0FFE0FFE0FFE0FFE0FFE097
:10413000FFE0FFE0FFE0FFE0FFE0FFE0FFE0C61888
:10414000C618C618C618C6187BCF0020FFFFFFFF91
:10415000FFFFFFFFFFFFFFFFFFFFFFFFFFFFFFFF6F
:10416000FFFFFFFFBDF70000840F840000008410F4
:1041700084008400840084008410840000207BCFAD
:10418000FFE0FFE0C618FFE0C618C616C616FFE03F
:10419000C618C618C618C616C616FFE0FFE0FFE030
:1041A000FFE0FFE0FFE0FFE0FFE0FFE0FFE0FFE017
:1041B000FFE0FFE0FFE0FFE0FFE0FFE0FFE0FFE007
:1041C000FFE0FFE0FFE0FFE0FFE0FFE0FFE0FFE0F7
:1041D000FFE0FFE0FFE0FFE0FFE0FFE0FFE1C618E7
:1041E000FFE0FFE0C618B5B60000FFFFFFFFFFFFCE
:1041F000FFFFFFFFFFFFFFFFFFFFFFFFFFFFFFFFCF
:10420000FFFFFFFF00008410840F8400000078008F
:1042100084108400841084008400841084000000D2
:10422000BDF7FFE0C618FFE0FFE0FFE0FFE0C618C3
:10423000FFE0FFE0FFE0FFE0FFE0FFE0FFE0FFE086
:10424000FFE0FFE0FFE0FFE0FFE0FFE0FFE0FFE076
:10425000FFE0FFE0FFE0FFE0FFE0FFE0FFE1FFE164
:10426000FFE1FFE0FFE0FFE0FFE0FFE0FFE0FFE055
:10427000FFE0FFE0FFE0FFE0FFE0FFE0FFE0FFE046
:10428000FFE0C61800000841FFFFFFFFFFFFFFFF30
:10429000FFFFFFFFFFFFFFFFFFFFFFFFFFFFFFFF2E
:1042A000FFFFFFFF8410840084008410841000004E
:1042B00084108410840084008400840084008410AE
:1042C000000000008410FFE0FFE0C616C618FFE102
:1042D000FFE0FFE0FFE0FFE0FFE0FFE0FFE0FFE0E6
:1042E000FFE0FFE0FFE0FFE0FFE0FFE0FFE0FFE0D6
:1042F000FFE0FFE0FFE0FFE0FFE0FFE0FFE0FFE0C6
:10430000FFE0FFE0FFE0FFE0FFE0FFE0FFE0FFE0B5
:10431000FFE0FFE0FFE0FFE1FFE1FFE0FFE0C618A4
:10432000C6180000FFFFFFFFFFFFFFFFFFFFFFFFBB
:10433000FFFFFFFFFFFFFFFFFFFFFFFFFFFFFFFF8D
:10434000FFFFFFFF840F84108400840F841000009F
:10435000841084008410840084008400840084001D
:1043600000000000B5B6FFE1FFE0FFE0C616C6188A
:10437000FFE0FFE0FFE0FFE0FFE0FFE0FFE0FFE045
:10438000FFE0FFE0FFE0FFE0FFE0FFE0FFE0FFE035
:10439000FFE0C616C616FFE0FFE0FFE0FFE0FFE02B
:1043A000FFE0FFE0FFE0FFE0FFE0FFE0FFE0FFE015
:1043B000FFE0FFE0FFE1C616C616FFE1FFE1B5B67C
:1043C0000000F79EFFFFFFFFFFFFFFFFFFFFFFFF64
:1043D000FFFFFFFFFFFFFFFFFFFFFFFFFFFFFFFFED
:1043E000FFFFFFFF84108410841084008400841079
:1043F0000000841084008400840084008400841001
:104400007800000000000000C618FFE1FFE0FFE0B8
:10441000FFE0FFE0FFE0FFE0FFE0FFE0FFE0FFE0A4
:10442000FFE0FFE0FFE0FFE0FFE0FFE1FFE1FFE191
:10443000FFE1FFE0FFE1FFE1FFE1C618C618FFE181
:10444000FFE0FFE0FFE0FFE0FFE0FFE0FFE0FFE074
:10445000FFE0FFE0C618FFE0FFE17BCF00000000B7
:10446000000000007BCFFFFFFFFFFFFFFFFFFFFF0C
:10447000FFFFFFFFFFFFFFFFFFFFFFFFFFFFFFFF4C
:10448000FFFFFFFF841084008400841084008410E8
:1044900000007BCF84108400840084008400840F9B
:1044A00000000000000000000000C618FFE1C61870
:1044B000FFE0FFE0FFE0FFE0FFE0FFE0FFE0FFE004
:1044C000FFE0FFE0FFE0FFE0FFE0C618C618C618F7
:1044D000C618C618C618C618C618C618C618C618EC
:1044E000C616FFE0FFE0FFE0FFE0FFE0FFE0FFE0D7
:1044F000FFE0FFE0FFE0C6187BCF000000000000F7
:10450000000000000000FFFFFFFFFFFFFFFFFFFFB5
:10451000FFFFFFFFFFFFFFFFFFFFFFFFFFFFFFFFAB
:10452000FFFFFFFF840F8400840084008400841058
:1045300084100000840084108400840084108400AF
:10454000000000000000000000000000000000006B
:1045500000000000000078007BCF7BCF7BCF7BCFBB
:104560007BCF780000000000000000000000000089
:10457000000000000000000000000000000000003B
:10458000000000007BC0BDF68410FFE1FFE0FFE00B
:10459000FFE0FFE0FFE183C000000000000000003A
:1045A000000000000000FFFFFFFFFFFFFFFFFFFF15
:1045B000FFFFFFFFFFFFFFFFFFFFFFFFFFFFFFFF0B
:1045C000FFFFFFFF840084008400840084008400D7
:1045D0008410841078008410840084008410840087
:1045E0008410000000000000000000000000000037
:1045F00000000000000000000000000000000000BB
:1046000000000000000000000000000000000000AA
:10461000000000000000000000000000000000009A
:1046200000000000000000000000000000007BCF40
:10463000B5B6B5B67BCF000000000000000000005A
:1046400000000000FFFFFFFFFFFFFFFFFFFFFFFF76
:10465000FFFFFFFFFFFFFFFFFFFFFFFFFFFFFFFF6A
:10466000FFFFFFFF84008410840084008400840026
:10467000840084000000841084108400841084006E
:1046800084100000C6180C3000000000000000007C
:10469000000000000000000000000000000000001A
:1046A000000000000000000000000000000000000A
:1046B00000000000000000000000000000000000FA
:1046C00000000000000000000000000000000000EA
:1046D00000000000000000000000000000000000DA
:1046E0000000FFFFFFFFFFFFFFFFFFFFFFFFFFFFD8
:1046F000FFFFFFFFFFFFFFFFFFFFFFFFFFFFFFFFCA
:10470000FFFFFFFF000084108400841084008410E9
:104710008400841084000000000084008400841061
:104720008410000000000000000000000000FFDF17
:1047300084300000000000000000000000000000C5
:104740000000000000000000000000000000000069
:104750000000000000000000000000000000000059
:104760000000000000000000000000000000000049
:104770000000000000000000000000000000FFFF3B
:104780007BCFFFFFFFFFFFFFFFFFFFFFFFFFFFFFED
:10479000FFFFFFFFFFFFFFFFFFFFFFFFFFFFFFFF29
:1047A000FFFFFFFF000078008410840F8400840066
:1047B000840084008400841000008410840084102D
:1047C00000000000000000000000000000000000E9
:1047D0000000B5B6FFFF0841000000000000000027
:1047E00000000000000000000000000000000000C9
:1047F00000000000000000000000000000000000B9
:1048000000000000000000000000000000000000A8
:10481000000000000000000000000000FFFF7BCF50
:104820000000FFFFFFFFFFFFFFFFFFFFFFFFFFFF96
:10483000FFFFFFFFFFFFFFFFFFFFFFFFFFFFFFFF88
:10484000FFFFFFFF8400002000008410841084001C
:10485000840084008400840F8410000084107BCFC7
:104860000000000000000000000000000000000048
:104870000000000000000000B5B6FFFF0841000086
:104880000000000000000000000000000000000028
:104890000000000000000000000000000000000018
:1048A0000000000000000000000000000000000008
:1048B00000000000000000000000FFFF7BCF0000B0
:1048C00000000000FFFFFFFFFFFFFFFFFFFFFFFFF4
:1048D000FFFFFFFFFFFFFFFFFFFFFFFFFFFFFFFFE8
:1048E000FFFFFFFF84008400840000007800841034
:1048F00084108400840084108410841000008410CC
:10490000FFFFC618C6188430000000000000000039
:104910000000000000000000000000000000000097
:10492000BDF7C618084100000000000000000000AC
:104930000000000000000000000000000000000077
:104940000000000000000000000000000000000067
:1049500000000000000084300000BDF700000000EF
:1049600000000000FFFFFFFFFFFFFFFFFFFFFFFF53
:10497000FFFFFFFFFFFFFFFFFFFFFFFFFFFFFFFF47
:10498000FFFFFFFF840084108410840000000000FB
:104990008410840084008400840084107800000067
:1049A00000000000B5B6FFFFC6188410000000002C
:1049B00000000000000000000000000000000000F7
:1049C00000000000B5B6C618084100000000000055
:1049D00000000000000000000000000000000000D7
:1049E00000000000000000000000000000000000C7
:1049F00000008430F79E00008410000000000000DA
:104A0000000000008410FFFFFFFFFFFFFFFFFFFF1C
:104A1000FFFFFFFFFFFFFFFFFFFFFFFFFFFFFFFFA6
:104A2000FFFFFFFF84008400841084108410841032
:104A3000000083CF84008400841000000020000068
:104A400000000000000000000000FFDFC6180000AA
:104A50000000000000000000000000000000000056
:104A6000000000000000000000007BCFFFDFFFFF20
:104A700008610020000000000000000000000000AD
:104A80000000002000000000000000200841FFFF9F
:104A90007BCF000000000000FFFF000000000000CE
:104AA000000000000000FFFFFFFFFFFFFFFFFFFF10
:104AB000FFFFFFFFFFFFFFFFFFFFFFFFFFFFFFFF06
:104AC000FFFFFFFF84108410840F840084008400A3
:104AD000840F00008410000000008410000000001B
:104AE000000000000000000000000000B5B6C6187D
:104AF00000000000000000000000000000000000B6
:104B000000000000000000000000000000000000A5
:104B100000007BCFB5B6FFDFFFFFC61884308430BE
:104B2000841000000000FFFFFFDF00000000000015
:104B30000000000000000000C61800000000000097
:104B4000000000000000FFFFFFFFFFFFFFFFFFFF6F
:104B5000FFFFFFFFFFFFFFFFFFFFFFFFFFFFFFFF65
:104B6000FFFFFFFF7800840084008400841084101D
:104B70008410780000007BCF8400841000000000C7
:104B800000000000000000000000000000007BCFDB
:104B9000FFFF000000000000000000000000000017
:104BA0000000000000000000000000000000000005
:104BB00000000000000000000000000000000000F5
:104BC0000000002084100000000000000000000031
:104BD0000000000000000000FFFF000000000000D7
:104BE0000000000000007BCFFFFFFFFFFFFFFFFF83
:104BF000FFFFFFFFFFFFFFFFFFFFFFFFFFFFFFFFC5
:104C0000FFFFFFFF000078007BC07BC000000000BA
:104C100000008400841000000000841000000000E8
:104C20000000000000000000000000000000000084
:104C3000FFFF8410000000000000000000000000E2
:104C40000000000000000000000000000000000064
:104C50000000000000000000000000000000000054
:104C60000000C618C6180000000000000000000088
:104C70000000000000000000FFFF00000000000036
:104C80000000000000000000FFFFFFFFFFFFFFFF2C
:104C9000FFFFFFFFFFFFFFFFFFFFFFFFFFFFFFFF24
:104CA000FFFFFFFFFFFF0000002000208020841096
:104CB00084108400841084100000000000000000B4
:104CC00000000000000000000000000000000000E4
:104CD0007BCFFFFF0000000000000000000000008C
:104CE00000000000000000000000000000000000C4
:104CF00000000000000000000000000000000000B4
:104D00000000C618C61800000000000000000000E7
:104D10000000000000000000C618000000000000B5
:104D20000000000000000000FFFFFFFFFFFFFFFF8B
:104D3000FFFFFFFFFFFFFFFFFFFFFFFFFFFFFFFF83
:104D4000FFFFFFFFFFFFFFFF0000841084008400CF
:104D500084008410840084008400000000000000AF
:104D60000000000000000000000000000000000043
:104D70000000C61800000000000000000000000055
:104D80000000000000000000000000000000000023
:104D90000000000000000000000000000000000013
:104DA0000000C618C6180000000000000000000047
:104DB0000000000000008410BDF7000000000000AB
:104DC0000000000000000000FFFFFFFFFFFFFFFFEB
:104DD000FFFFFFFFFFFFFFFFFFFFFFFFFFFFFFFFE3
:104DE000FFFFFFFFFFFFFFFFC618000084108400D5
:104DF000840F840F840084008410000000000000F1
:104E000000000000000000000000000000000000A2
:104E10000000FFFF00300000000000000000000064
:104E20000000000000000000000000000000000082
:104E30000000000000000000000000000000000072
:104E400000007BCF7BCF00000000000000000000CE
:104E5000000000000000C6188410000000000000E0
:104E60000000000000000000FFFFFFFFFFFFFFFF4A
:104E7000FFFFFFFFFFFFFFFFFFFFFFFFFFFFFFFF42
:104E8000FFFFFFFFFFFFFFFFFFFFFFFF002000000E
:104E9000841084008410840F84100000000000003F
:104EA0000000000000000000000000000000000002
:104EB0000000C618C6180000000000000000000036
:104EC00000000000000000000000000000000000E2
:104ED00000000000000000000000000000000000D2
:104EE00000000000000000000000000000000000C2
:104EF000000000000000C6187BCF0000000000008A
:104F00000000000000000000FFFFFFFFFFFFFFFFA9
:104F1000FFFFFFFFFFFFFFFFFFFFFFFFFFFFFFFFA1
:104F2000FFFFFFFFFFFFFFFFFFFFFFFFFFFF8430DB
:104F30000000780083CF841084100000000000007F
:104F40000000000000000000000000000000000061
:104F50000000FFFFC6180000000000000000000075
:104F60000000000000000000000000000000000041
:104F70000000000000000000000000000000000031
:104F80000000000000000000000000000000000021
:104F9000000000000000FFFF000000000000000013
:104FA0000000000000000000FFFFFFFFFFFFFFFF09
:104FB000FFFFFFFFFFFFFFFFFFFFFFFFFFFFFFFF01
:104FC000FFFFFFFF000000000000000000000000E5
:104FD00000000404040404000004000014140A0087
:104FE000000000000000000000000A0A1F0A0A1F5B
:104FF0000A0A000000040E1505060C14150E040024
:10500000000012150D152E2C2A1200000000040AB3
:105010000A361515291600000202010000000000E2
:10502000000000001008080404040404080810002C
:105030000204040808080808040402000000000430
:10504000150E0E150400000000000008083E0808B8
:10505000000000000000000000000000020201004B
:1050600000000000003F0000000000000000000001
:1050700000000000000200000020101008080404D6
:105080000202010000000E1111111111110E000099
:105090000000040604040404040E000000000E11C5
:1050A00011080402011F000000000E11100C101066
:1050B000110E00000000080C0C0A091F081C00005B
:1050C00000001F01010F1110110E000000000C1252
:1050D000010D1311110E000000001E100808040439
:1050E0000404000000000E11110E1111110E000039
:1050F00000000E1111191610090600000000000032
:105100000400000000040000000000000004000093
:10511000000404000000100804020204081000004B
:10512000000000003F003F000000000000000204FB
:10513000081010080402000000000E1111080404F9
:105140000004000000001C22292D2D1D221C00003F
:10515000000004040C0A0A1E1233000000000F12A3
:10516000120E1212120F000000001E1101010101A7
:10517000110E000000000F1212121212120F000086
:1051800000001F120A0E0A02121F000000001F1268
:105190000A0E0A020207000000001C120101391168
:1051A000120C000000003312121E12121233000003
:1051B00000001F0404040404041F000000003E0853
:1051C0000808080808080907000037120A060A122A
:1051D000123700000000070202020202223F000014
:1051E00000003B1B1B1B15151535000000003B1272
:1051F00016161A1A1217000000000E1111111111C3
:10520000110E000000000F12120E02020207000031
:1052100000000E1111111117190E180000000F12C5
:10522000120E0A121237000000001E1101060810AB
:10523000110F000000001F1504040404040E0000F8
:105240000000331212121212120C0000000033126E
:10525000120A0A0C040400000000151515150E0AA8
:105260000A0A000000001B0A0A04040A0A1B0000C4
:1052700000001B0A0A0A0404040E000000001F09B3
:1052800008040402121F00001C04040404040404A3
:1052900004041C00000202040404080808101000A2
:1052A0000E0808080808080808080E00040A00008C
:1052B00000000000000000000000000000000000EE
:1052C0000000003F02040000000000000000000099
:1052D00000000000000C121C123C0000000302023F
:1052E000020E1212120E000000000000001C12023A
:1052F000120C000000181010101C1212123C0000BA
:1053000000000000000C121E021C00000018240403
:10531000041E0404041E000000000000003C120CE7
:10532000021C221C00030202020E1212123700009D
:105330000004040000060404040E00000008080035
:10534000000C08080808080700030202021A0A06EF
:105350000A1300000007040404040404041F0000EE
:1053600000000000000F15151515000000000000DA
:10537000000F12121237000000000000000C121281
:10538000120C000000000000000F1212120E0207A3
:1053900000000000001C1212121C10380000000057
:1053A000001B06020207000000000000001E020CA5
:1053B000101E000000000004041E0404041C000071
:1053C00000000000001B1212123C00000000000050
:1053D000001B0A0A04040000000000000015150E5E
:1053E0000A0A000000000000001B0A040A1B00005B
:1053F00000000000003312120C080403000000003B
:10540000001E0804041E000018080808080C0808FC
:105410000808180008080808080808080808080804
:105420000604040404080404040406001609000029
:10543000000000000000000000000000000000006C
:105440000000000000000000000000080808080834
:10545000080800001818000000486C241200000022
:1054600000000000000000000000002424247F123F
:1054700012127F12121200000000081C2A2A0A0CC5
:105480001828282A2A1C08080000002225151515AE
:105490002A585454542200000000000C1212120A20
:1054A00076252911916E0000000606040300000015
:1054B0000000000000000000004020101008080854
:1054C00008080810102040000002040808101010FE
:1054D00010101008080402000000000008086B1CEF
:1054E0001C6B080800000000000000000808080805
:1054F0007F0808080800000000000000000000000D
:105500000000000006060403000000000000000088
:10551000FE0000000000000000000000000000008D
:10552000000000000606000000008040402020101F
:10553000100808040402020000000018244242423D
:105540004242424224180000000000080E080808E9
:1055500008080808083E00000000003C42424220C3
:1055600020100804427E00000000003C4242201847
:1055700020404042221C000000000020302824244B
:1055800022227E20207800000000007E0202021A03
:1055900026404042221C0000000000382402021A6B
:1055A00026424242241800000000007E22221010F1
:1055B00008080808080800000000003C4242422495
:1055C00018244242423C000000000018244242429B
:1055D00064584040241C000000000000000018181F
:1055E0000000000018180000000000000000000883
:1055F000000000000008080400000040201008041B
:1056000002040810204000000000000000007F009D
:1056100000007F00000000000000000204081020CD
:1056200040201008040200000000003C42424640B6
:1056300020101000181800000000001C225A5555B8
:1056400055552D42221C00000000000808181414B3
:10565000243C224242E700000000001F2222221EBA
:1056600022424242221F00000000007C424201010F
:1056700001010142221C00000000001F22424242A0
:1056800042424242221F00000000003F4212121E0E
:1056900012120242423F00000000003F4212121E5E
:1056A00012120202020700000000003C2222010147
:1056B00001712122221C0000000000E74242424208
:1056C0007E42424242E700000000003E080808080F
:1056D00008080808083E00000000007C10101010A8
:1056E000101010101010110F0000007722120A0E77
:1056F0000A121222227700000000000702020202B2
:1057000002020202427F0000000000773636363681
:105710002A2A2A2A2A6B0000000000E346464A4A49
:1057200052525262624700000000001C2241414177
:1057300041414141221C00000000003F42424242E0
:105740003E020202020700000000001C224141410B
:1057500041414D53321C60000000003F4242423E36
:105760001212222242C700000000007C42420204C2
:1057700018204042423E00000000007F490808080F
:1057800008080808081C0000000000E742424242E6
:1057900042424242423C0000000000E742422224D2
:1057A00024141418080800000000006B49494949F6
:1057B0005555362222220000000000E7422424181A
:1057C0001818242442E70000000000772222141455
:1057D00008080808081C00000000007E21201010A6
:1057E00008040442423F000000780808080808083E
:1057F00008080808080878000000020204040808E5
:105800000810102020204040001E10101010101012
:105810001010101010101E0000384400000000008E
:105820000000000000000000000000000000000078
:1058300000000000000000FF00060800000000005B
:105840000000000000000000000000000000003C1C
:105850004278444242FC0000000000030202021AA7
:1058600026424242261A00000000000000000038D4
:1058700044020202443800000000006040404078CA
:105880004442424264D80000000000000000003C96
:10589000427E0202423C0000000000F08808087EC0
:1058A00008080808083E0000000000000000007C16
:1058B00022221C023C42423C000000030202023A47
:1058C0004642424242E700000000000C0C00000E7D
:1058D00008080808083E00000000003030000038CA
:1058E000202020202020221E00000003020202723D
:1058F000120A1612227700000000000E080808089D
:1059000008080808083E0000000000000000007FB2
:105910009292929292B70000000000000000003BBB
:105920004642424242E70000000000000000003C06
:1059300042424242423C0000000000000000001BC6
:1059400026424242221E02070000000000000078AA
:1059500044424242447840E00000000000000077EA
:105960004C040404041F0000000000000000007C40
:1059700042023C40423E0000000000000008083E99
:10598000080808080830000000000000000000635C
:105990004242424262DC000000000000000000E7DA
:1059A000422424140808000000000000000000EB5E
:1059B00049495555222200000000000000000076F1
:1059C00024181818246E000000000000000000E7F2
:1059D0004224241418080807000000000000007E7C
:1059E00022100808447E000000C020202020201043
:1059F000202020202020C0001010101010101010A7
:105A000010101010101010100006080808080810D8
:105A100008080808080806000C32C2000000000050
:105A20000000000000000000000000000000000076
:105A30000000000000000000000000000000000066
:105A40000000000000000000000000000000000056
:105A50000000000000000000000000000000000046
:105A60006000600060006000600060006000400056
:105A70002000200020000000000000006000600006
:105A800060000000000000000000000060066006EA
:105A9000300398018800440000000000000000006E
:105AA00000000000000000000000000000000000F6
:105AB00000000000000000000000000000000000E6
:105AC0001002100210021002FE07FE070802080171
:105AD000080108010801FE07FE0704010401040192
